{
  "contractName": "Greeting",
  "abi": [
    {
      "inputs": [
        {
          "internalType": "string",
          "name": "initialName",
          "type": "string"
        }
      ],
      "stateMutability": "nonpayable",
      "type": "constructor"
    },
    {
      "inputs": [],
      "name": "greetingPrefix",
      "outputs": [
        {
          "internalType": "string",
          "name": "",
          "type": "string"
        }
      ],
      "stateMutability": "view",
      "type": "function",
      "constant": true
    },
    {
      "inputs": [],
      "name": "name",
      "outputs": [
        {
          "internalType": "string",
          "name": "",
          "type": "string"
        }
      ],
      "stateMutability": "view",
      "type": "function",
      "constant": true
    },
    {
      "inputs": [
        {
          "internalType": "string",
          "name": "newName",
          "type": "string"
        }
      ],
      "name": "setName",
      "outputs": [],
      "stateMutability": "nonpayable",
      "type": "function"
    },
    {
      "inputs": [],
      "name": "getGreeting",
      "outputs": [
        {
          "internalType": "string",
          "name": "",
          "type": "string"
        }
      ],
      "stateMutability": "view",
      "type": "function",
      "constant": true
    }
  ],
  "bytecode": "0x60c0604052600560808190526448656c6c6f60d81b60a0908152610026916001919061006c565b5034801561003357600080fd5b5060405161068e38038061068e8339810160408190526100529161011b565b805161006590600090602084019061006c565b5050610225565b828054610078906101ea565b90600052602060002090601f01602090048101928261009a57600085556100e0565b82601f106100b357805160ff19168380011785556100e0565b828001600101855582156100e0579182015b828111156100e05782518255916020019190600101906100c5565b506100ec9291506100f0565b5090565b5b808211156100ec57600081556001016100f1565b634e487b7160e01b600052604160045260246000fd5b6000602080838503121561012e57600080fd5b82516001600160401b038082111561014557600080fd5b818501915085601f83011261015957600080fd5b81518181111561016b5761016b610105565b604051601f8201601f19908116603f0116810190838211818310171561019357610193610105565b8160405282815288868487010111156101ab57600080fd5b600093505b828410156101cd57848401860151818501870152928501926101b0565b828411156101de5760008684830101525b98975050505050505050565b600181811c908216806101fe57607f821691505b6020821081141561021f57634e487b7160e01b600052602260045260246000fd5b50919050565b61045a806102346000396000f3fe608060405234801561001057600080fd5b506004361061004c5760003560e01c806306fdde0314610051578063213686071461006f578063c47f002714610077578063fe50cc721461008c575b600080fd5b610059610094565b604051610066919061020a565b60405180910390f35b610059610122565b61008a610085366004610275565b61012f565b005b610059610146565b600080546100a190610326565b80601f01602080910402602001604051908101604052809291908181526020018280546100cd90610326565b801561011a5780601f106100ef5761010080835404028352916020019161011a565b820191906000526020600020905b8154815290600101906020018083116100fd57829003601f168201915b505050505081565b600180546100a190610326565b8051610142906000906020840190610171565b5050565b60606001600060405160200161015d9291906103fb565b604051602081830303815290604052905090565b82805461017d90610326565b90600052602060002090601f01602090048101928261019f57600085556101e5565b82601f106101b857805160ff19168380011785556101e5565b828001600101855582156101e5579182015b828111156101e55782518255916020019190600101906101ca565b506101f19291506101f5565b5090565b5b808211156101f157600081556001016101f6565b600060208083528351808285015260005b818110156102375785810183015185820160400152820161021b565b81811115610249576000604083870101525b50601f01601f1916929092016040019392505050565b634e487b7160e01b600052604160045260246000fd5b60006020828403121561028757600080fd5b813567ffffffffffffffff8082111561029f57600080fd5b818401915084601f8301126102b357600080fd5b8135818111156102c5576102c561025f565b604051601f8201601f19908116603f011681019083821181831017156102ed576102ed61025f565b8160405282815287602084870101111561030657600080fd5b826020860160208301376000928101602001929092525095945050505050565b600181811c9082168061033a57607f821691505b6020821081141561035b57634e487b7160e01b600052602260045260246000fd5b50919050565b8054600090600181811c908083168061037b57607f831692505b602080841082141561039d57634e487b7160e01b600052602260045260246000fd5b8180156103b157600181146103c2576103ef565b60ff198616895284890196506103ef565b60008881526020902060005b868110156103e75781548b8201529085019083016103ce565b505084890196505b50505050505092915050565b60006104078285610361565b600160fd1b815261041b6001820185610361565b9594505050505056fea26469706673582212205ab4483a744a6c9f35a0ff584a0c1f921694440b53475cfca8fb09b2538f6b0e64736f6c634300080b0033",
  "immutableReferences": {},
  "source": "pragma solidity ^0.8.11;\r\n\r\ncontract Greeting {\r\n  \r\n\r\n  string public name;\r\n  string public greetingPrefix =\"Hello\";\r\n \r\n\r\n constructor(string memory initialName){\r\n   name = initialName;\r\n }\r\n\r\n  function setName(string memory newName) public {\r\n    name = newName;\r\n  }\r\n\r\n  function getGreeting() public view returns (string memory) {\r\n    return string(abi.encodePacked(greetingPrefix,\" \",name));\r\n    \r\n  }\r\n\r\n\r\n}",
  "sourcePath": "E:\\2Todo_dapp\\contracts\\Greeting.sol",
  "compiler": {
    "name": "solc",
    "version": "0.8.11+commit.d7f03943.Emscripten.clang"
  },
  "schemaVersion": "3.4.4",
  "updatedAt": "2022-01-31T11:00:14.433Z",
  "networkType": "ethereum",
  "devdoc": {
    "kind": "dev",
    "methods": {},
    "version": 1
  },
  "userdoc": {
    "kind": "user",
    "methods": {},
    "version": 1
  }
}