{
  "contractName": "Todo",
  "abi": [
    {
      "inputs": [],
      "stateMutability": "nonpayable",
      "type": "constructor"
    },
    {
      "inputs": [],
      "name": "task",
      "outputs": [
        {
          "internalType": "string",
          "name": "",
          "type": "string"
        }
      ],
      "stateMutability": "view",
      "type": "function",
      "constant": true
    },
    {
      "inputs": [
        {
          "internalType": "uint256",
          "name": "",
          "type": "uint256"
        }
      ],
      "name": "todoList",
      "outputs": [
        {
          "internalType": "string",
          "name": "",
          "type": "string"
        }
      ],
      "stateMutability": "view",
      "type": "function",
      "constant": true
    },
    {
      "inputs": [
        {
          "internalType": "string",
          "name": "NewTask",
          "type": "string"
        }
      ],
      "name": "setTodo",
      "outputs": [],
      "stateMutability": "nonpayable",
      "type": "function"
    },
    {
      "inputs": [],
      "name": "getTodo",
      "outputs": [
        {
          "internalType": "string[]",
          "name": "",
          "type": "string[]"
        }
      ],
      "stateMutability": "view",
      "type": "function",
      "constant": true
    }
  ],
  "bytecode": "0x608060405234801561001057600080fd5b5060408051808201909152600c81526b15185cdac818dc99585d195960a21b602082015261003d90610042565b6101f3565b80516100559060019060208401906100a4565b50600080546001818101835591805281547f290decd9548b62a8d60345a988386fc84ba6bc95484008f6362f93160ef3e5639091019190610095906101b8565b6100a0929190610128565b5050565b8280546100b0906101b8565b90600052602060002090601f0160209004810192826100d25760008555610118565b82601f106100eb57805160ff1916838001178555610118565b82800160010185558215610118579182015b828111156101185782518255916020019190600101906100fd565b506101249291506101a3565b5090565b828054610134906101b8565b90600052602060002090601f0160209004810192826101565760008555610118565b82601f106101675780548555610118565b8280016001018555821561011857600052602060002091601f016020900482015b82811115610118578254825591600101919060010190610188565b5b8082111561012457600081556001016101a4565b600181811c908216806101cc57607f821691505b602082108114156101ed57634e487b7160e01b600052602260045260246000fd5b50919050565b6105ce806102026000396000f3fe608060405234801561001057600080fd5b506004361061004c5760003560e01c80633283f6411461005157806358c2d4691461006f5780637fa1680a14610082578063b9abac7414610097575b600080fd5b6100596100ac565b6040516100669190610401565b60405180910390f35b61005961007d36600461041b565b61013a565b61008a610165565b6040516100669190610434565b6100aa6100a53660046104ac565b61023e565b005b600180546100b99061055d565b80601f01602080910402602001604051908101604052809291908181526020018280546100e59061055d565b80156101325780601f1061010757610100808354040283529160200191610132565b820191906000526020600020905b81548152906001019060200180831161011557829003601f168201915b505050505081565b6000818154811061014a57600080fd5b9060005260206000200160009150905080546100b99061055d565b60606000805480602002602001604051908101604052809291908181526020016000905b828210156102355783829060005260206000200180546101a89061055d565b80601f01602080910402602001604051908101604052809291908181526020018280546101d49061055d565b80156102215780601f106101f657610100808354040283529160200191610221565b820191906000526020600020905b81548152906001019060200180831161020457829003601f168201915b505050505081526020019060010190610189565b50505050905090565b80516102519060019060208401906102a0565b50600080546001818101835591805281547f290decd9548b62a8d60345a988386fc84ba6bc95484008f6362f93160ef3e56390910191906102919061055d565b61029c929190610324565b5050565b8280546102ac9061055d565b90600052602060002090601f0160209004810192826102ce5760008555610314565b82601f106102e757805160ff1916838001178555610314565b82800160010185558215610314579182015b828111156103145782518255916020019190600101906102f9565b5061032092915061039f565b5090565b8280546103309061055d565b90600052602060002090601f0160209004810192826103525760008555610314565b82601f106103635780548555610314565b8280016001018555821561031457600052602060002091601f016020900482015b82811115610314578254825591600101919060010190610384565b5b8082111561032057600081556001016103a0565b6000815180845260005b818110156103da576020818501810151868301820152016103be565b818111156103ec576000602083870101525b50601f01601f19169290920160200192915050565b60208152600061041460208301846103b4565b9392505050565b60006020828403121561042d57600080fd5b5035919050565b6000602080830181845280855180835260408601915060408160051b870101925083870160005b8281101561048957603f198886030184526104778583516103b4565b9450928501929085019060010161045b565b5092979650505050505050565b634e487b7160e01b600052604160045260246000fd5b6000602082840312156104be57600080fd5b813567ffffffffffffffff808211156104d657600080fd5b818401915084601f8301126104ea57600080fd5b8135818111156104fc576104fc610496565b604051601f8201601f19908116603f0116810190838211818310171561052457610524610496565b8160405282815287602084870101111561053d57600080fd5b826020860160208301376000928101602001929092525095945050505050565b600181811c9082168061057157607f821691505b6020821081141561059257634e487b7160e01b600052602260045260246000fd5b5091905056fea2646970667358221220f0d7f436c5824737d2009243e9e7ac020b2f10aa9b2b6aff8a9da29a79b49f2e64736f6c634300080b0033",
  "immutableReferences": {},
  "source": "pragma solidity ^0.8.11;\r\n\r\ncontract Todo {\r\n  \r\n\r\n  string [] public todoList;\r\n  string public task;\r\n \r\n    constructor(){\r\n        setTodo(\"Task created\");\r\n    }\r\n\r\n  function setTodo(string memory NewTask) public {\r\n    task = NewTask;\r\n    todoList.push(task);\r\n  }\r\n\r\n  function getTodo() public view returns (string [] memory) {\r\n    return todoList;\r\n    \r\n  }\r\n\r\n\r\n}",
  "sourcePath": "E:\\2Todo_dapp\\contracts\\Todo.sol",
  "compiler": {
    "name": "solc",
    "version": "0.8.11+commit.d7f03943.Emscripten.clang"
  },
  "schemaVersion": "3.4.4",
  "updatedAt": "2022-01-31T11:00:14.509Z",
  "networkType": "ethereum",
  "devdoc": {
    "kind": "dev",
    "methods": {},
    "version": 1
  },
  "userdoc": {
    "kind": "user",
    "methods": {},
    "version": 1
  }
}